:100000000C9464000C948C000C948C000C948C0068
:100010000C948C000C948C000C948C000C948C0030
:100020000C948C000C948C000C948C000C948C0020
:100030000C948C000C948C000C948C000C948C0010
:100040000C9419070C948C000C9401050C948C00F2
:100050000C948C000C948C000C948C000C948C00F0
:100060000C948C000C948C000000000024002700ED
:100070002A0000000000250028002B0000000000DE
:1000800023002600290004040404040404040202DA
:100090000202020203030303030301020408102007
:1000A0004080010204081020010204081020000012
:1000B0000007000201000003040600000000000029
:1000C0000000A600E902BA0511241FBECFEFD8E058
:1000D000DEBFCDBF11E0A0E0B1E0E6EBF1E102C090
:1000E00005900D92AE31B107D9F711E0AEE1B1E064
:1000F00001C01D92AF3EB107E1F710E0C8ECD0E0BF
:1001000004C02297FE010E94D508C23CD107C9F75E
:100110000E94FA040C94D9080C940000FC01E081C0
:10012000E23069F0E33018F4E13079F405C0E330EF
:1001300049F0E43051F408C06093B300089560932F
:10014000B400089567BD089568BD08950895E0EB73
:10015000F0E090819368908387708093B100109253
:10016000B3008BE061E00E94E3070895E0EBF0E06C
:1001700090819362908387708093B1001092B40055
:1001800083E061E00E94E3070895CF93DF938CE062
:1001900060E00E94030888E060E00E940308C7E076
:1001A000D0E084E060E00E94030880911F0190E0AD
:1001B0000C2E02C0959587950A94E2F780FF03C044
:1001C00088E061E002C088E060E00E94030884E00B
:1001D00061E00E94030821978FEFCF3FD80709F70E
:1001E0008CE061E00E940308DF91CF910895FC014B
:1001F000E081E23061F0E33020F4E13009F05DC0ED
:1002000009C0E33051F0E43009F057C009C041E0C3
:1002100054E008C042E053E005C045E057E002C0AA
:1002200040E056E06230C1F0643079F1613009F0AD
:1002300044C081E090E09C0102C0220F331F5A9518
:10024000E2F7209502C0880F991F4A95E2F7409186
:100250001F01482B242312C081E090E09C0102C0C2
:10026000220F331F4A95E2F7209540911F01242366
:1002700002C0880F991F5A95E2F7282B20931F017F
:100280008EE191E00E94C500089581E090E09C011C
:1002900002C0220F331F4A95E2F702C0880F991F50
:1002A0005A95E2F7822B809520911F0128232093F5
:1002B0001F018EE191E00E94C50008950F931F93E6
:1002C0008C018CE061E00E94E30787E061E00E941E
:1002D000E30788E061E00E94E30784E061E00E94B8
:1002E000E30710921F01C8010E94C50087E060E08B
:1002F0000E9403081F910F9108950F931F93FC0113
:10030000162F042F608341838EE191E00E945E01ED
:100310001230C1F0133020F4113009F040C005C094
:100320001330E9F01430D9F529C080911F01837F83
:1003300080931F018EE191E00E94C500802F0E94F2
:10034000A7002DC080911F018D7E80931F018EE13B
:1003500091E00E94C500802F0E94B60020C08091CD
:100360001F018F7580931F018EE191E00E94C500EF
:1003700084B5836884BD17BC86E00EC080911F01E0
:100380008E7B80931F018EE191E00E94C50084B5B1
:10039000836284BD18BC85E061E00E94E3071F9181
:1003A0000F910895FC0110828FEF81830895EF92E1
:1003B000FF920F931F93CF93DF93EC019B0177FF85
:1003C00003C020E030E005C0653B710514F024EB6C
:1003D00030E02983EA806B8170E06E19710988270B
:1003E00077FD8095982F982F872F762F662730E0FE
:1003F00040E050E00E94500824EB30E040E050E044
:100400000E94A408FF2400E010E0102F0F2DFE2C06
:10041000EE24E20EF31E041F151FC801B70128E0E9
:1004200030E040E050E00E94A4088881893029F43F
:10043000309389002093880006C08A3021F43093DD
:100440008B0020938A00DF91CF911F910F91FF9035
:10045000EF900895CF93DF93EC01FB01CB01099757
:10046000029710F080E054C0CA0160E170E00E9481
:100470006F086A83C90160E170E00E946F086B83B6
:10048000E8838FEF89838E2F60E00E9403088881C4
:1004900061E00E94E30780912001882311F580919B
:1004A00021018823F1F42FB7F89482E08093800033
:1004B0008AE18093810088EB9BE090938900809390
:1004C000880090938B0080938A0080E49CE990934D
:1004D00087008093860080916F00887F80936F00F3
:1004E0002FBF8881893041F481E080932001809181
:1004F00080008F73806809C08A3049F481E080935E
:100500002101809180008F7C80628093800081E057
:10051000DF91CF91089540E252E020E639E00E9459
:100520002A020895409130015091310184E0403B0E
:1005300058071CF040EB54E006C084E090E0909334
:100540003901809338012091320130913301241711
:10055000350714F09A0106C083E090E090933901CA
:10056000809338014091340150913501421753076F
:1005700014F0A90106C082E090E0909339018093C5
:10058000380180913601909137018417950734F432
:1005900081E090E0909339018093380180914E0181
:1005A00090914F01FC01EE0FFF1FE65CFE4F209182
:1005B00038013091390131832083019690934F01A6
:1005C00080934E010A9724F010924F0110924E0131
:1005D000089582E291E00E94D2018CE291E064E011
:1005E00042E00E947D018EE291E063E042E00E94E1
:1005F0007D010895DF93CF93CDB7DEB728970FB66F
:10060000F894DEBF0FBECDBFFE01319688E0DF015A
:100610001D928A95E9F7ACE3B1E09F01ED91FD9160
:100620003197EE0FFF1FE20FF31F8081918101963A
:100630009183808381E0AE34B80781F784ED91E047
:1006400060E071E00E94470629813A818B819C819C
:100650008217930724F4C90141E050E002C042E050
:1006600050E02D813E812817390714F49C0102C007
:1006700043E050E08F8198858217930714F044E09F
:1006800050E0509311014093100128960FB6F89452
:10069000DEBF0FBECDBFCF91DF91089582E00E94F3
:1006A000C507909331018093300183E00E94C50714
:1006B000909333018093320184E00E94C5079093A8
:1006C00035018093340185E00E94C507909337017E
:1006D000809336010E9492020E94FA02089580E0FF
:1006E0000E94C5079C01442737FD4095542FB9014E
:1006F000CA010895EF92FF920F931F935CE2E52EDB
:1007000051E0F52EC70164E00E94F7000EE211E00F
:10071000C80164E00E94F700C70162E00E94F70090
:10072000C80162E00E94F7001F910F91FF90EF90C7
:1007300008958CE291E061E00E94F7008EE291E082
:1007400062E00E94F70008958CE291E062E00E946E
:10075000F7008EE291E061E00E94F70008958CE2DC
:1007600091E061E00E94F7008EE291E061E00E947A
:10077000F70008950E944E0320911001309111015D
:10078000C9010397029718F40E9499030895223033
:10079000310519F40E94A40308952130310511F4A4
:1007A0000E94AF0308958CE291E064E00E94F7009C
:1007B0008EE291E064E00E94F70064EF71E080E077
:1007C00090E00E94610708950E94D30364EF71E0F6
:1007D00080E090E00E9461070E947A036CE271E081
:1007E00080E090E00E9461070E94A4036CE271E047
:1007F00080E090E00E9461070E94D3030895209159
:100800002601309127012535310580F4809128019A
:1008100090912901A0912A01B0912B018752924019
:10082000A040B0401CF00E94A4030895C901855562
:100830009040459780F48091280190912901A091E2
:100840002A01B0912B0189559240A040B0401CF084
:100850000E94E40308952A5630402B34310580F479
:100860008091280190912901A0912A01B0912B013A
:1008700087529240A040B0401CF00E949903089516
:100880000E94BA03089580910D01209126013091B4
:100890002701882329F080910E01280F311D04C003
:1008A00080910F01281B31093093270120932601E5
:1008B0008091260190912701843B91052CF01092A4
:1008C0000D0184EB90E007C002974CF481E0809327
:1008D0000D0181E090E090932701809326010E9412
:1008E0006F03609328017093290180932A019093EC
:1008F0002B01609126017091270182E291E00E9414
:10090000D7016FE070E080E090E00E9461070895F9
:10091000609126017091270184ED91E00E941107FA
:1009200084ED91E061E071E00E9428064091280189
:100930005091290160912A0170912B0184ED91E081
:100940000E94EA0684ED91E063E071E00E942806CF
:1009500080913801909139018130910529F484ED1D
:1009600091E065E071E013C08230910529F484EDD7
:1009700091E067E071E00BC0039729F484ED91E00A
:1009800069E071E004C084ED91E06BE071E00E94E9
:10099000470608950E9443040E94FF030E948804B2
:1009A00008950F931F9384ED91E040E056E960E0D5
:1009B00070E00E943E0502E211E0C8016AE070E0CA
:1009C0000E948B02C80160E070E00E94D7018CE2B7
:1009D00091E068EC0E948E008EE291E068EC0E944B
:1009E0008E006CED75E080E090E00E9461071F9141
:1009F0000F9108950E948B070E94D1040E94CA049F
:100A0000FDCF1F920F920FB60F9211242F933F9399
:100A10004F935F936F937F938F939F93AF93BF9306
:100A2000EF93FF934091C600E091D001F091D10186
:100A3000CF01019660E870E00E946F089C018091F0
:100A4000D2019091D3012817390739F0E05BFE4FAE
:100A500040833093D1012093D001FF91EF91BF915A
:100A6000AF919F918F917F916F915F914F913F9146
:100A70002F910F900FBE0F901F901895AF92BF92BD
:100A8000CF92DF92EF92FF920F931F93CF93DF935A
:100A90006C017A018B01DC011496AD90BC90159726
:100AA000CB01BA0122E030E040E050E00E94A4080F
:100AB000205C3D4B404F5F4FCA01B901A80197012F
:100AC0000E94A408C901DA010197A109B109292FDF
:100AD0003A2F4B2F552747FD5A950196A11DB11D61
:100AE000E5012883E601EE81FF8181508083EA855C
:100AF000FB85208141E050E0CA010E8402C0880FCE
:100B0000991F0A94E2F7282B2083EA85FB85208130
:100B1000CA010F8402C0880F991F0A94E2F7282B9C
:100B20002083EA85FB858081088802C0440F551F19
:100B30000A94E2F7842B8083DF91CF911F910F916C
:100B4000FF90EF90DF90CF90BF90AF900895FC01A1
:100B5000A085B18521898C9190E0022E02C09595E7
:100B600087950A94E2F780FFF6CF0484F585E02D9F
:100B70006083089587E191E09093D5018093D4013B
:100B800080E591E09093D7018093D60185EC90E0C9
:100B90009093D9018093D80184EC90E09093DB018D
:100BA0008093DA0180EC90E09093DD018093DC018A
:100BB00081EC90E09093DF018093DE0186EC90E081
:100BC0009093E1018093E00184E08093E20183E06F
:100BD0008093E30187E08093E40185E08093E50161
:100BE00008950F931F93CF93DF938C01EB0109C0FE
:100BF0002196D801ED91FC910190F081E02DC80182
:100C0000099568816623A1F7DF91CF911F910F911C
:100C10000895EF92FF920F931F93CF93DF938C0170
:100C20007B01EA010CC0D7016D917D01D801ED91E6
:100C3000FC910190F081E02DC80109952197209742
:100C400091F7DF91CF911F910F91FF90EF90089551
:100C5000DC01ED91FC910280F381E02D099508956E
:100C60000F931F938C01DC01ED91FC910190F081B9
:100C7000E02D6DE00995D801ED91FC910190F08196
:100C8000E02DC8016AE009951F910F9108950F9317
:100C90001F938C010E942806C8010E9430061F91F4
:100CA0000F9108952F923F924F925F926F927F9291
:100CB0008F929F92AF92BF92CF92DF92EF92FF926C
:100CC0000F931F93DF93CF93CDB7DEB7A0970FB6E7
:100CD000F894DEBF0FBECDBF1C016A017B01411538
:100CE00051056105710549F4DC01ED91FC9101901C
:100CF000F081E02D60E3099554C0882499245401C3
:100D0000422E55246624772401E010E00C0F1D1FAD
:100D1000080D191DC701B601A30192010E948208A6
:100D2000F80160830894811C911CA11CB11CC701AF
:100D3000B601A30192010E948208C901DA016C0187
:100D40007D01C114D104E104F104F1F681E0E82E43
:100D5000F12CEC0EFD1EE80CF91C3E010894611C00
:100D6000711CD501C4010197A109B1096C01C81812
:100D7000D90814C0F601EE0DFF1D60816A3010F431
:100D8000605D01C0695CD101ED91FC910190F08141
:100D9000E02DC10109950894E108F1086E147F0463
:100DA00049F7A0960FB6F894DEBF0FBECDBFCF9126
:100DB000DF911F910F91FF90EF90DF90CF90BF9048
:100DC000AF909F908F907F906F905F904F903F90EB
:100DD0002F900895EF92FF920F931F93CF93DF937D
:100DE000EC017A018B0177FF0FC0E881F981019056
:100DF000F081E02D6DE2099510950095F094E09456
:100E0000E11CF11C011D111DCE01B801A7012AE052
:100E10000E945206DF91CF911F910F91FF90EF90AA
:100E20000895AB01662757FD6095762F0E94EA066C
:100E300008951F920F920FB60F9211242F933F9394
:100E40008F939F93AF93BF938091EA019091EB01B1
:100E5000A091EC01B091ED013091EE010196A11D40
:100E6000B11D232F2D5F2D3720F02D570196A11D89
:100E7000B11D2093EE018093EA019093EB01A093C2
:100E8000EC01B093ED018091E6019091E701A09112
:100E9000E801B091E9010196A11DB11D8093E60121
:100EA0009093E701A093E801B093E901BF91AF915E
:100EB0009F918F913F912F910F900FBE0F901F9098
:100EC0001895EF92FF920F931F937B018C018FB7C0
:100ED000F8944091EA015091EB016091EC0170911E
:100EE000ED018FBF2FB7F8948091EA019091EB014B
:100EF000A091EC01B091ED012FBF841B950BA60BC7
:100F0000B70BE816F9060A071B0760F71F910F9148
:100F1000FF90EF900895789484B5826084BD84B585
:100F2000816084BD85B5826085BD85B5816085BDE4
:100F3000EEE6F0E0808181608083E1E8F0E080818E
:100F400082608083808181608083E0E8F0E080813E
:100F500081608083E1EBF0E0808184608083E0EB5E
:100F6000F0E0808181608083EAE7F0E08081846046
:100F700080838081826080838081816080838081A2
:100F8000806880831092C10008958770909112014B
:100F90009295990F990F907C982B90937C0080915B
:100FA0007A00806480937A0080917A0086FDFCCF7D
:100FB0002091780040917900942F80E030E0282B38
:100FC000392BC9010895282F30E0C90186569F4F5B
:100FD000FC0194912A573F4FF9018491882391F0A5
:100FE000E82FF0E0EE0FFF1FE859FF4FA591B491F5
:100FF000662329F48C91909589238C9308958C9184
:10100000892B8C930895482F50E0CA0182559F4F39
:10101000FC012491CA0186569F4FFC0194914A57C6
:101020005F4FFA0134913323D1F1222331F1233080
:1010300021F4809180008F7705C0243031F48091B5
:1010400080008F7D8093800018C0213019F484B512
:101050008F7704C0223021F484B58F7D84BD0DC00C
:10106000263021F48091B0008F7705C0273029F415
:101070008091B0008F7D8093B000E32FF0E0EE0F01
:10108000FF1FEE58FF4FA591B491662329F48C9170
:10109000909589238C9308958C91892B8C93089536
:1010A000629FD001739FF001829FE00DF11D649F4C
:1010B000E00DF11D929FF00D839FF00D749FF00DD8
:1010C000659FF00D9927729FB00DE11DF91F639F79
:1010D000B00DE11DF91FBD01CF011124089597FB4B
:1010E000092E07260AD077FD04D049D006D000206B
:1010F0001AF4709561957F4F0895F6F79095819554
:101100009F4F0895A1E21A2EAA1BBB1BFD010DC023
:10111000AA1FBB1FEE1FFF1FA217B307E407F507A7
:1011200020F0A21BB30BE40BF50B661F771F881F83
:10113000991F1A9469F760957095809590959B0119
:10114000AC01BD01CF01089597FB092E05260ED0F5
:1011500057FD04D0D7DF0AD0001C38F450954095D5
:10116000309521953F4F4F4F5F4F0895F6F790957B
:101170008095709561957F4F8F4F9F4F0895AA1B63
:10118000BB1B51E107C0AA1FBB1FA617B70710F072
:10119000A61BB70B881F991F5A95A9F780959095A4
:1011A000BC01CD010895EE0FFF1F0590F491E02DD5
:0611B0000994F894FFCF42
:1011B600007C003B004E0045005300570001060628
:0E11C60001000100000000A705F10509060068
:00000001FF
